:0300000002264392
:0C264300787FE4F6D8FD75817E02268ABF
:1027E3006D75736963206F6E00596F752061726533
:1027F30020612063726561746F72006D7573696324
:10280300206F6666005768617420646F20796F7566
:102813002077616E7420746F20646F206E65787406
:10282300004C6574277320506C61790048617665AC
:10283300206120676F6F64206461790000A8C00085
:102843003F065B4F666D7D077F6F0008400141487F
:10285300BF86DBCFE6EDFD87FFEF7779393776303B
:102083000154000257AA550227000102550000011E
:06209300220A02230000F6
:10176500E55464027051852908852A09852B0A8567
:101775002C0B750C0A750D1D750E1B750F05D522E5
:101785000375220AE522C39408402CE533453260EF
:1017950026E52D7022E52E24FE600F1460111460DD
:1017A500132403701275080A800D75090A800875DF
:1017B5000A0A8003750B0AE55464047051852908EB
:1017C500852A09852B0A852C0B750C0C750D0C7556
:1017D5000E1F750F1AD5220375220AE522C3940838
:1017E500402CE53345326026E52D7022E52E24FE9A
:1017F500600F1460111460132403701275080A80B9
:101805000D75090A8008750A0A8003750B0AE554E7
:101815006401704A750F1A750E1B750D1C750C0A3F
:101825001230A87E007C037DE8120CAF7C007D0A97
:10183500120CAF8D0B1230A8EF75F0648475F00AA9
:101845008485F00A1230A8EF75F00A8475F00A84D1
:1018550085F0091230A8EF75F00A8485F008E55483
:10186500B40318750F1C750E1E750D1B852908858B
:101875002A09852B0A852C0B750C0AE554701875F9
:10188500080C75090C750A0C750B0C750C0C750D8F
:101895000C750E0C750F0C850C13850B14850A152C
:0F18A500850916850817AB0DAD0EAF0F022F0F7B
:10135100E4F508F509E55464026009E554640460A4
:10136100030215B885290A852A0B852B0C852C0DBE
:101371007F04122BA0EF6401704CE53345326046C7
:10138100C3E52E9404E52D648094805039052EE543
:101391002E7002052DE52D7022E52E24FE600F141E
:1013A100601114601324037012E4F529800DE4F533
:1013B1002A8008E4F52B8003E4F52C7D147C007F62
:1013C100E87E031228E07F01122BA0EF6401704B2D
:1013D100E53345326045D3E52E9401E52D648094D3
:1013E100804038E52E152E7002152DE52D7021E572
:1013F1002E14600F146011146013240370127529E8
:101401000A800D752A0A8008752B0A8003752C0A3B
:101411007D147C007FE87E031228E07F05122BA05B
:10142100BF0128E53345326022E52D701EE52E24EB
:10143100FE600E14600F1460102403700E052980E5
:101441000A052A8006052B8002052C7F02122BA09B
:10145100BF0128E53345326022E52D701EE52E24BB
:10146100FE600E14600F1460102403700E152980A5
:101471000A152A8006152B8002152CE4FF122BA0D9
:10148100EF6401702CE533453270047F0180027FE7
:10149100007532008F33E554B4040BE4FF7E1478F9
:1014A10035E4F608DEFC7D147C007FE87E0312281B
:1014B100E0E50AB40A03E4F50AE50BB40A03E4F52E
:1014C1000BE50CB40A03E4F50CE50DB40A03E4F5ED
:1014D1000DE4F519F518F517751640FFFE7D207C12
:1014E10041121D54C004C005C006C007AC0CEC126B
:1014F1000A08D003D002D001D0001208F8C004C0FD
:1015010005C006C007E4F519F518751740751640B2
:10151100FFFE7D207C41121D54C004C005C006C0E1
:1015210007AC0DEC120A08D003D002D001D0001292
:1015310008F8D003D002D001D000120807C004C0BF
:1015410005C006C007E4F519F51875178075163F33
:10155100FFFE7D207C41121D54C004C005C006C0A1
:1015610007AC0BEC120A08D003D002D001D0001254
:1015710008F8D003D002D001D000120807C004C07F
:1015810005C006C007AC0AEC120A08D003D002D08D
:1015910001D000120807120A3C8E598F5A751700A4
:1015A100751800751957E4F51AF51BFB7A007935A2
:0715B100AD5AAC59122D26C2
:0115B8002210
:101C3200E556640145556003021D3DE54A640145D0
:101C4200496003021D3D74352524F8E624CFB4070C
:101C5200004003021D3D901C6675F003A4C5832558
:101C6200F0C58373021C7B021C9B021CBB021CD5A9
:101C7200021CEF021D09021D2312303AEF6003021B
:101C82001D3D750B107B217DFA7FFA12233005244E
:101C9200E52470220523021D3D12303AEF60030253
:101CA2001D3D750B107B227DFA7FFA12233005242D
:101CB200E52470020523021D3D12303AEF701475BF
:101CC2000B107B237DFA7FFA1223300524E5247062
:101CD20002052312303AEF7014750B107B247DFA43
:101CE2007FFA1223300524E5247002052312303ACC
:101CF200EF7014750B107B257DFA7FFA12233005E5
:101D020024E5247002052312303AEF7014750B108B
:101D12007B267DFA7FFA1223300524E52470020522
:101D22002312303AEF7014750B107B277DFA7FFA7D
:101D32001223300524E52470020523C3E524955AB5
:101D4200E5596480F8E5236480984005E4F523F5BD
:011D5200246C
:011D5300226D
:102B0E00E5546404704478357C00FD7BFF7A2779A8
:102B1E00E312103EEF7011F5557556017BFF7A27C3
:102B2E0079EC7D12FC122E3678357C007D007BFF11
:102B3E007A2779FE12103EEF7010F555F5567BFF91
:0B2B4E007A2879087D1CFC122E36222C
:102E5E00E554B401211230A8EF601B7D3C7C007F4D
:102E6E00E87E031228E01230A8EFFD7C007B007A8A
:072E7E00007935122E362207
:101F7D00E4FF122C2AEF64017076E554B4020B7B5A
:101F8D00007A007935AD5A122CA9E554B4030D7BB6
:101F9D00007A007935AD5AAC59122E36E5546404E9
:101FAD00704EE55664014555702E7D14FC7FE87E1C
:101FBD00031228E0E54A454970047F0180027F0045
:101FCD007549008F4AE54A6401454970237BFF7AC4
:101FDD002879247D0BFC80157D147C007FE87E0321
:101FED001228E07BFF7A28792F7D107C00122E3687
:101FFD007F01122C2AEF6401707B7D14FC7FE87E3B
:10200D00031228E00553E553D394034003E4F5533D
:10201D00AD53E4FF122F9FE553B4021D75540375A4
:10202D001700751800751957E4F51AF51BFB7A00A2
:10203D007935AD5AAC59122D26E5537028755401DA
:10204D00FB7A0079351230831230A8EFFD7C0075D4
:10205D001700751800751957E4F51AF51BFB7A0072
:10206D007935122D26E553B40103755402E553B4A9
:06207D0003037554042268
:1029BD00E55464026005E554B40305AF5A12309036
:1029CD00E5546003B404350526E52670020525643B
:1029DD000A45257027F525F526AF28123090E528F4
:1029ED0025E0F528E52733F527D3E5289400E527DD
:1029FD00648094824006752700752801E554B40162
:072A0D00061230A812309000
:012A1400229F
:10251C001230967F2B122FD5122F84122EEF7F980C
:10252C00122D59122F2F122FE57FB07E0412275A2D
:10253C00E4F529752A0A752B0A752C0A752F0A756C
:10254C00300A75310A75340AF52DF52E7D07FF1208
:10255C00305A7BFF7A2979BDE4FF1228637BFF7A1E
:10256C001779657F021228637BFF7A1C79327F0111
:10257C001228637BFF7A1F797D7F041228637BFF0F
:10258C007A2E795E7F0B1228637BFF7A2B790E7F74
:10259C00091228637BFF7A1379517F071228631283
:0425AC002CE880FB9C
:093051008B88898C88898F88899D
:1020990052007A86860086860086860086860086B5
:0920A900860086860041006F09E3
:03002B0002308A16
:06308A0053BCEFD20C3232
:0215B900157E9D
:1015BB00200C03021762C20C90006EE0B4090040CD
:1015CB00030217449015D6F828287302161D02152E
:1015DB00F102160302162F0215F10216030216462C
:1015EB000215F1021603AFBDEFFEADBE7C00E42D7C
:1015FB00FFEC3E900070803CAFBDEFFEADBE7C00BB
:10160B00E42DFFEC3E900072F0A3EFF07577010232
:10161B00174AAFBDEFFEADBE7C00E42DFFEC3E9054
:10162B0000748010AFBDEFFEADBE7C00E42DFFEC6F
:10163B003E900076F0A3EFF002174AAFBDEFFEAD80
:10164B00BE7C00E42DFFEC3E900078F0A3EFF09011
:10165B000078E0FEA3E07807CEC313CE13D8F9A829
:10166B007EF6C394065013A87EE675F003A4247A85
:10167B00F582E43400F583E014F090006FE014F091
:10168B00600302174A7409F0A87EE4F6A87EE6FF11
:10169B00C39406400302174AEF75F003A4247AF5AE
:1016AB0082E43400F583E0C39480502AE6FF75F0A2
:1016BB0003A4247BF582E43400F583E0D3948040CB
:1016CB0040EF75F003A4247CF582E43400F58374B9
:1016DB0001F0F578802BA87EE6FF75F003A4247B40
:1016EB00F582E43400F583E0C394805014EF75F079
:1016FB0003A4247CF582E43400F5837402F075783E
:10170B0001A87EE6FF75F003A4247AF582E4340089
:10171B00F583E0FEEF75F003A4247BF582E434003F
:10172B00F583EEF0E675F003A4247AF582E4340039
:10173B00F5837486F00602169790006E74FFF09096
:10174B00006EE0D39408400374FFF090006EE00449
:07175B00F090305193F5BC42
:03176200057E22DF
:02300300157E38
:09300500A87EA678E4F578E6FF48
:03300E00057E221A
:02301100157E2A
:09301300A87EA677E4F577E6FF3C
:03301C00057E220C
:102D59008F9D75BC88439720D2AD90004574FFF0D4
:102D6900A37415F0A374B9F0A374FFF0A37430F041
:102D7900A37403F0A374FFF0A37430F0A37411F0EB
:012D89002227
:073075007B017A0079702253
:102BA000C3EF64809480403BD3EF648094855033BE
:102BB000EFFD3395E0FC90007C75F003ED120EAE56
:102BC000EC75F003A42583F583E0FE90007C75F09E
:102BD00003ED120EAEEC75F003A42583F583E4F04B
:052BE000AF06227F0397
:012BE50022CD
:042DE600157E157EC3
:102DEA00123063A87EA60608A607A87EE6FE08E6B5
:0F2DFA00FF4E600BEF24FFFFEE34FFFE12306C34
:052E0900057E057E229C
:102EEF0053B1EF43B2101230A5E4F5D975DA49D2D8
:102EFF00DE90003F74FFF0A3742DF0A374E6F02270
:0828E0008E128F138C148D156C
:1028E800123063EF4E7066AF15AE1412306CC3E54C
:1028F80013940AE5129400404BE47B18FAF9F89017
:10290800283F120E82120DBBC006C007AE12AF13CD
:10291800AB07AA06E4F9F8D007D006120DBBAB073F
:10292800AA06AFF9EFFEADE97C00E42DFFEC3ECF3F
:102938002BCF3AAD07FCAF03AE02122FB4D2D84367
:0F294800DA0180061230A553DAFE7F02227F03E8
:01295700225D
:0C303A00123063EF4E7002FF227F012273
:10217A00E4F5809000BEE0FFB40800505F90218E25
:10218A00F82828730221A60221AC0221B20221B842
:10219A000221BE0221C80221D20221DCC2A3C2A2AC
:1021AA008016C2A3C2A2801AC2A3C2A2801EC2A360
:1021BA00C2A28022C2A3D2A2C2A1C2A08020C2A36C
:1021CA00D2A2C2A1D2A08016C2A3D2A2D2A1C2A078
:1021DA00800CC2A3D2A2D2A1D2A08002D2A3C3EF02
:1021EA006480948850299000BEE0FF3395E0FE7425
:1021FA00B52FF58274003EF583E0FF3395E0FE7457
:10220A00432FF58274283EF583E493F580801E906F
:10221A0000BEE0FFB408133395E0FE74B52FF582D3
:10222A0074003EF583E0F5808003E4F5809000B405
:10223A00E0FF9000BEE004FEF0D3EF6480F8EE64A5
:10224A0080984014E0D36480948850047408F02283
:09225A009000B3E09000BEF022F8
:102F8400E4F5937594FF5395F043960F90002A74DB
:0B2F9400FFF0A37421F0A3747AF02278
:09305A009000B3EFF0A3EDF022A9
:102F0F009000B5EFF0A3EDF0A3EBF0A3E513F0A362
:102F1F00E514F0A3E515F0A3E516F0A3E517F022ED
:063090009000BDEFF022EC
:1020B200017D004900C094940094940094940041DE
:0320C20000BF1E3E
:021B0F00157E41
:101B110020B2069000C0E014F020B3069000C3E0AC
:101B210014F02097069000C6E014F09000BFE01476
:101B3100F06003021C2F741EF0A87EE4F6A87EE676
:101B4100FFC3648094834003021C2FEF3395E0FEB2
:101B51009000C075F003EF120EAEEE75F003A425F0
:101B610083F583E0C3948050399000C175F003EF91
:101B7100120EAEEE75F003A42583F583E0D39480B5
:101B8100405AE6FF3395E0FE9000C275F003EF1274
:101B91000EAEEE75F003A42583F5837401F0F57D97
:101BA100803AA87EE6FF3395E0FE9000C175F00310
:101BB100EF120EAEEE75F003A42583F583E0C39416
:101BC1008050199000C275F003EF120EAEEE75F061
:101BD10003A42583F5837402F0757D01A87EE6FFD9
:101BE100FD3395E0FC9000C075F003ED120EAEECF4
:101BF10075F003A42583F583E0FE9000C175F00321
:101C0100ED120EAEEC75F003A42583F583EEF0EF33
:101C11003395E0FE9000C075F003EF120EAEEE7545
:0E1C2100F003A42583F5837494F006021B3EA5
:031C2F00057E220D
:02301F00157E1C
:09302100A87EA67DE4F57DE6FF22
:03302A00057E22FE
:102F2F0090003074FFF0A37430F0A3741FF0900082
:0D2F3F002D74FFF0A3741BF0A3740FF0229B
:102C2A00EF600764016003BF0233EFFD3395E0FCF8
:102C3A009000C275F003ED120EAEEC75F003A425F8
:102C4A0083F583E0FE9000C275F003ED120EAEEC40
:0F2C5A0075F003A42583F583E4F0AF06227F0312
:012C69002248
:1020C5004100000A4100290A41006D0A046100002F
:1020D50000000169004600670000FFFF8FFFC10A8D
:1020E500C105C108C101C10B60240005FF30ABFF6C
:1020F50030ABFF30ABFF30ABFF30ABFF30ABFF3069
:10210500ABFF30ABFF30ABFF30ABFF30ABFF30ABDD
:102115006036002AFF30ABFF30ABFF30A2FF30AB9B
:10212500FF30A2FF30ABFF30A2FF30ABFF30ABFF7B
:1021350030ABFF30A2FF30A2FF30A2FF30A2FF304C
:0A214500ABFF30ABFF30ABFF30AB57
:0130AB002202
:0330A2007F00228A
:102B5900438E805389F07BE07A28790178009028A8
:102B69003F120E82122BE6EFF404F58A7BE07A28F5
:102B79007901780090283F120E82122BE6C3E49F58
:102B8900FFE49EFE74019DFDE49CFC7808120E6E24
:072B99008F8CD28CD2A9221F
:03000B00022AC006
:042AC000C0E0C0D0E2
:102AC400D55B0A755B4C300A020569D20AA203720F
:102AD400045032155DE55D702C855F5DD2073009C9
:102AE40017E56060071560438F018019538FFEC29C
:102AF400B5D56B11C209800D055EE55ED394064021
:052B040004D206C2032B
:052B0900D0D0D0E03245
:102A6D00300B47C20B90283F120E827810120E6E5B
:102A7D008E798F7A900003E0FEA3E0FFE4FCFD7BEE
:102A8D0019FAF9F8120D30C006C007AE79AF7AAB5E
:102A9D0007AA06E4F9F8D007D006122BE678031240
:102AAD000E6E900065EEF0A3EFF0900065E0FEA3D2
:022ABD00E0FF38
:012ABF0022F4
:09306300900067E0FEA3E0FF22EB
:09306C00900067EEF0A3EFF022E2
:102FB40090006BEEF0A3EFF0900069ECF0A3EDF05D
:012FC40022EA
:0330A500C2B42290
:03003B000223DAC3
:1023DA00C0E0C083C082C0D075D000C004C005C0B0
:0323EA0006C00723
:1023ED0030DF04C2DF807D30DA04C2DA807630D986
:1023FD003DC2D9AFFBEFFEADEB7C00E42DFFEC3E13
:10240D0020000E900001F0A3EFF075DB11D20080DB
:10241D0053FE900001E0FCA3E0FDC3EF9DFFEE9C99
:10242D00A3F0A3EFF075DB00C200D20B803630D8DD
:10243D0033C2D8900067E07002A3E06022B2B4907E
:10244D000069E0FEA3E0F5EAEEF5FAA3E0FEA3E0F5
:10245D00FF90006AE02FF0900069E03EF08005C229
:04246D00B453DAFE8C
:10247100D007D006D005D004D0D0D082D083D0E010
:012481003228
:06309600122B59D2AF22FB
:1026CF003004047F0180027F002009047E01800214
:1026DF007E00EE5F6074E56AC3955C506830023629
:1026EF00756001E56A131313541FAB6CAA6DA96EC5
:1026FF00F582758300120C4EFFE56A540704FEEF56
:10270F00A806088002C333D8FC30D705756B038049
:10271F002F756B01802AAB6CAA6DA96E75F002E55F
:10272F006AA4F58285F083120C4EF560E56A75F0A8
:10273F0002A429F9EA35F0FA900001120C4EF56B5C
:0A274F00056AD20922C204438F106C
:01275900225D
:10226300900000E014F0701F740AF0D2059000296A
:10227300E014F07012740AF0D20890006DE014F0CC
:102283007005740AF0D20190002AA3E0FAA3E0F9E2
:10229300120EBA90002DA3E0FAA3E0F9120EBA9041
:1022A3000039A3E0FAA3E0F9120EBA900045A3E0C7
:1022B300FAA3E0F9120EBA900054A3E0FAA3E0F9EE
:1022C300120EBA90005DA3E0FAA3E0F9120EBA90E1
:1022D3000005A3E0FAA3E0F9120EBA90004BA3E0C5
:1022E300FAA3E0F9120EBAEF600C90001DA3E0FA16
:1022F300A3E0F9120EBA90004EA3E0FAA3E0F9129C
:102303000EBAEF600C900020A3E0FAA3E0F9120EDE
:10231300BA900051A3E0FAA3E0F9120EBAEF600CF1
:0D232300900023A3E0FAA3E0F9120EBA2205
:1025B00090003FA3E0FAA3E0F9120EBA900042A304
:1025C000E0FAA3E0F9120EBA900033A3E0FAA3E018
:1025D000F9120EBA900008A3E0FAA3E0F9120EBABD
:1025E000900030A3E0FAA3E0F9120EBAEF600C906D
:1025F0000011A3E0FAA3E0F9120EBA900036A3E0AE
:10260000FAA3E0F9120EBAEF600C900017A3E0FAFB
:10261000A3E0F9120EBA900048A3E0FAA3E0F91281
:102620000EBAEF600C90001AA3E0FAA3E0F9120EC4
:10263000BA30060EC206900026A3E0FAA3E0F91213
:032640000EBA22AD
:102C6A0090000BA3E0FAA3E0F9120EBA90003CA37D
:102C7A00E0FAA3E0F9120EBAEF600C900014A3E098
:102C8A00FAA3E0F9120EBA900057A3E0FAA3E0F90A
:0F2C9A00120EBA90005AA3E0FAA3E0F9020EBAA4
:102DBB00AF64AE63AD62AC61900060120EA2900086
:102DCB0064E569F0E4F564F563F562F561F5699026
:0B2DDB00000EA3E0FAA3E0F9020EBA1C
:102CE800300705C2071226CF300A05C20A1222632E
:102CF800300505C2051225B0300805C208122C6A35
:102D0800300105C201122DBBE5642401F564E435E8
:0E2D180063F563E43562F562E43561F561222E
:102863008B088A09890AEFB40C005070902876F817
:1028730028287302289A02289F0228A40228A90262
:1028830028AE0228B30228B80228BD0228C20228B3
:10289300C70228CC0228D19000058035900008801B
:1028A3003090000B802B90000E8026900011802129
:1028B300900017801C900014801790001A801290CB
:1028C300001D800D9000208008900023800390005D
:0D28D30026E508F0A3E509F0A3E50AF022D0
:07307C007B017A007960225C
:1019E90000C400DC00F701060126014A01720188E2
:1019F90001B801EE020B024B029302E403100370DB
:101A090003DC04160497052605C800DC00F7011558
:101A19000126014A0172019F01B801EE022A024B17
:101A2900029302E4033F037003DC0455049705267F
:101A390005C8067D00F701150137014A0172019FAA
:101A490001D201EE022A026E029302E4033F03A4CB
:101A590003DC045504DD057505C8067D0749010643
:101A69000126014A015D018801B801EE020B024B12
:101A7900029302BA0310037003DC041604970526C7
:101A89000575062006E007B80126014A017201889A
:101A990001B801EE022A024B029302E4031003701B
:101AA90003DC04550497052605C8062006E007B897
:101AB90008AA014A0172019F01B801EE022A026EC9
:101AC900029302E4033F037003DC045504DD052699
:101AD90005C8067D06E007B808AA09B9015D0188AD
:101AE90001B801D2020B024B029302BA0310037030
:101AF90003A40416049705260575062006E0074980
:061B0900082D092D0A4D14
:10214F004D00A6030000000000000000000000008A
:062330008F088D098B0AE5
:1023360012303AEF60037F0122E50AD3940040068B
:10234600E50A94114028E50AD394174006E50A9455
:1023560021401BE50AD394274006E50A9431400E36
:10236600E50AD394375007E508C394F950037F0371
:1023760022E50A603DC4540F75F007A4FDACF0E5F4
:102386000875F015A42DFFE5F03CFEE50A54077C20
:10239600002FFFEC3EFEEF25E0FFEE33FE74FF2F2D
:1023A600F58274F03EF583E493F50C740193F50D14
:1023B6008005E4F50CF50DAF0B7E007C017D7712F0
:1023C6000C9DAD091C120CAFAD07AC06AF0DAE0CE3
:0323D6001228E0EA
:0123D90022E1
:04105B00157E157E6B
:10105F0012303AEF70047F0180027F009000A6E00B
:10106F00FEB402047D0180027D00ED5F6003021378
:10107F004CEEB4030AE49000A4F0A3F002134C90DA
:10108F0000A7E0FFB4F3047E0180027E00EFB4F10D
:10109F00047F0180027F00EF4E603E9000A9E0FECA
:1010AF0075F06484FFEE75F00A8475F00A84ADF074
:1010BF00E075F00A84ABF075130A9000A8E02407DE
:1010CF00F5149000A3E0FEC4540F240AF51575160D
:1010DF000AEE5407F517122F0F9000A7E0FFB4F395
:1010EF00047E0180027E00EFB4F2047F0180027F54
:1010FF0000EF4E70030211A59000A9E0FD7C007E69
:10110F00177F70120CAFA87EA607E6F975F002A440
:10111F00FFC39000B2E09F9000B1E095F05070E0F7
:10112F00FEA3E0FF7C007D0B120C9DE9FBFD120C72
:10113F00AFA87E08A6079000B1E475F001120D1A52
:10114F00FED3E5F09BEE94004018A87E08E624F944
:10115F00FFE47EF0A807088005CEC313CE13D8F99D
:10116F00801FA87E08E6FF740F7E00A80708800581
:10117F00C333CE33CED8F97804CEA2E713CE13D82B
:10118F00F8A87E08F6A87E08E6FF1230908007E4E4
:10119F009000B1F0A3F09000ADE0FEA3E0FFC3908C
:1011AF0000B0E09F9000AFE09E4003021346123064
:1011BF003AEF600302134C9000AAE0FBA3E0FAA3FE
:1011CF00E0F99000AFE0FEA3E0F5828E83120C4EA3
:1011DF00FFD3943750030212E1EF241024FC50790F
:1011EF00604524FE700302128C1470030212A224B5
:1011FF000260030212D09000AAE0FBA3E0FAA3E082
:10120F00F99000AFE475F001120D0485F082F583BB
:10121F00120C4E9000A8F09000B0E004F07098907F
:10122F0000AFE004F080909000AAE0FBA3E0FAA3E7
:10123F00E0F99000AFE475F001120D0485F082F52E
:10124F0083120C4E9000A9F09000B0E004F0706E85
:10125F009000AFE004F00211C69000AAE0FBA3E0FB
:10126F00FAA3E0F99000AFE475F001120D1A85F0C2
:10127F0082F583120C4E9000A7F00211C69000AFBA
:10128F00E475F001120D04AFF09000A4F0A3EFF09D
:10129F000211C69000A4E0FEA3E0FF4E6012900082
:1012AF00AFEEF0A3EFF0E49000A4F0A3F00211C6AC
:1012BF009000B0E004F070069000AFE004F002116F
:1012CF00C69000B0E004F070069000AFE004F002AA
:1012DF0011C69000ADE0FEA3E0FFC39000B0E09F09
:1012EF009000AFE09E50569000AAE0FBA3E0FAA357
:1012FF00E0F99000AFE475F001120D1A85F082F558
:10130F0083120C4E9000A3F09000A8E0FFA3E0FD25
:10131F00A3E0FBA3E0FAA3E0F99000AFE475F001BE
:10132F00120D1A85F082F583120C4EF50B9000A367
:0D133F00E0FB12233080069000A67403F03E
:05134C00057E057E2274
:0F2FE50090004274FFF0A37410F0A3745BF0220D
:102A15009000A6E0B4030DE49000AFF0A3F0A3F09E
:102A2500A3F0C20DE57660049000A7F0EF60049076
:102A350000A9F0ED60049000A8F0E94A60047F0168
:102A450080027F00E575457460047E0180027E008A
:102A5500EE5F60139000AAEBF0A3EAF0A3E9F0A300
:082A6500E574F0A3E575F02211
:102E0E00BF02047E0180027E00BF01047D018002AC
:102E1E007D00ED4EFEBF03047D0180027D00ED4E70
:082E2E0060059000A6EFF02200
:06309C009000A6E0FF22F7
:102FC500D2C0000000D2CD000000C2C00000002227
:0D302D00C2C0000000D2CD000000D2C022C1
:0B2E8500122EA9122E90AF05122EA9EC
:102E9000E4FFD2CD30C009EFC394FF50030F80F49C
:082EA000000000C2CD0000009B
:012EA8002207
:102EA900E4FEEF25E0FFC2CD00000092C000000063
:102EB900D2CD0000000EBE08E9C2CD000000D2C08C
:032EC90000000006
:012ECC0022E3
:102ECD00C2CD000000D2C000E4FED2CD0000EF253F
:102EDD00E0FDA2C0E4334DFF0000C2CD000EBE08E0
:012EED00E9FB
:012EEE0022C1
:102F9F00AC07122FC57FA0122EA9122E90AF0412CC
:052FAF002E8502302D0B
:022F4C00AD07CF
:102F4E00122FC57FA0122E85122FC57FA1122EA97A
:092F5E00122E90122ECD12302D1E
:012F67002247
:102FD50053B1DF43B220C2B5C2098F5F438F1022C0
:0300530002295827
:10295800C0E0C083C082C0D075D000C000C001C034
:0329680002C003A7
:10296B00200313D203757C08756800757B00E55F47
:10297B00C313F55D8028E57B25E0F57BE55EC3940D
:10298B00034002057BD57C16757C08AB65AA66A94E
:10299B0067856882758300E57B120C7B0568755E25
:0129AB00002B
:1029AC00D003D002D001D000D0D0D082D083D0E0E0
:0129BC0032E8
:073083008B658A6689672254
:0330A800AF6822EC
:102D8A002003047F0180027F002009047E01800263
:102D9A007E00EE5F60188B6C8A6D896EEDC313F549
:102DAA005CC202E4F56A538FEFD2047F02227F03EA
:012DBA0022F6
:102CA9002003047F0180027F002009047E01800245
:102CB9007E00EE5F6026538FEF756010756B08D24A
:102CC90009438F018B6C8A6D896EED75F008A40438
:0F2CD900F55CD202E4F56AD2047F02227F032267
:102F68002003047F0180027F002009047E01800283
:0C2F78007E00EE5F60037F00227F0122DC
:10215F0057008C04B00000000000000000000000D9
:0A216F000000000001000000000065
:03002300021E6B4F
:101E6B00C0E0C0F0C083C082C0D075D000C000C03D
:101E7B0001C002C003C004C005C006C00730993BB7
:101E8B00C299900093E0FEA3E0FFC3900092E09F05
:101E9B00900091E09E501F90008EE0FBA3E0FAA310
:101EAB00E0F9A3E475F001120D1A85F082F58312A7
:101EBB000C4EF5998005900095E4F0209803021FD5
:101ECB0062C298900096E0FBA3E0FAA3E0F99000C1
:101EDB009BE0FEA3E0FFF5828E83E599120C7B90CD
:101EEB0000A1E0FCA3E0FDC3EF9DEE9C50469000EB
:101EFB0099E0FEA3E0FFED9FEC9E503890009EE032
:101F0B00FBA3E0FAA3E0F990009BE0FEA3E0FFF552
:101F1B00828E83120C4EFD900096E0FBA3E0FAA399
:101F2B00E0F98F828E83120C4E6D600890009B74CB
:101F3B00FFF0A3F090009BE475F001120D04FED3AB
:101F4B0090009AE095F0900099E09E500A90009BCB
:101F5B00E4F0A3F0A304F0D007D006D005D004D052
:101F6B0003D002D001D000D0D0D082D083D0F0D01B
:021F7B00E03252
:022FF400157E48
:0A2FF60090009DE0A87EF6FFE4F0D5
:03300000057E2228
:10275A008E088F09759850438E40538EFE53890F09
:10276A00E47B04FAF9F890283F120E82120DBBC0DE
:10277A0006C007AE08AF09AB07AA06E4F9F8D00706
:10278A00D006120DBBEFF404F58BE47B04FAF9F8DA
:10279A0090283F120E82120DBBC006C007AE08AFCA
:1027AA0009AB07AA06E4F9F8D007D006120DBBC395
:1027BA00E49FFFE49EFE74019DFDE49CFC780812F0
:1027CA000E5B8F8DC2ABD28ED2AC90004E74FFF0EE
:0927DA00A3742FF0A374F4F022A3
:102D2600900096EBF0A3EAF0A3E9F0A3ECF0A3ED94
:102D3600F09000A1E51AF0A3E51BF090009EE517C0
:102D4600F0A3E518F0A3E519F0E490009BF0A3F0DA
:032D5600A3F022C5
:102E3600900095E0701F90008EEBF0A3EAF0A3E9F6
:102E4600F0E4A3F0A3F0A3ECF0A3EDF0A37401F07B
:082E5600D2997F02227F0322C2
:0B304600900095E07002FF227F012245
:10080000020AA8E86480F8E933E83360110460F074
:10081000ED33EC337009E8FCE9FDEAFEEBFF22045E
:1008200060DED3EB9FEA9EE99DE8C2E78CF0C2F759
:1008300095F0400CE8CCF8E9CDF9EACEFAEBCFFB25
:10084000120A7385D0F05804700320D5B3E8047001
:10085000075002B2D5020AB292D5EC0460F7E4CC9C
:10086000C0E0C398F8603B94186008400DD0E0FBEE
:10087000020A8AE4FBFAC9FC8028E830E406E4C9ED
:10088000FBE4CAFCE830E305E4C9CACBFCE8540742
:100890006010F8C3E913F9EA13FAEB13FBEC13FC4D
:1008A000D8F130F52FC3E49CFCEF9BFFEE9AFEEDF0
:1008B00099FDD0E0FBEF4E4D4C701222DB03020A93
:1008C000AFEC2CFCEF33FFEE33FEED33FDED30E704
:1008D000EB020A8AEF2BFFEE3AFEED39FDD0E0FB8A
:1008E00050130BBB0003020AB2ED13FDEE13FEEF33
:0808F00013FFEC13FC020A8A5D
:1008F800EC4D6011E8497017ED33EC3304600DE4FA
:10090800FCFFFEFD22E933E8330470F8020AA8125E
:100918000A7358046009E4CC24815006285009025F
:100928000AB2284003020AAFC0E0EB4A7044B9801B
:1009380006D0E0FB020A9EEF4E701CBD8008EBFF5C
:10094800EAFEE9FD80EBE98DF0A4FEE5F00209E19D
:10095800E9CDF9EAFEEBFFEF89F0A4FCE5F0CE89DA
:10096800F0A42EFFE435F0CD89F0A42DFEE435F097
:100978008067EF4E7005BD80D780C3EF8BF0A4ACC5
:10098800F0EE8BF0A42CFCE435F0F8EF8AF0A42C00
:10099800E5F038FCE433CB8DF0A42CFCE5F03BF813
:1009A800EE8AF0A42CFCE5F038F8E433CF89F0A403
:1009B8002CFCE5F038CF3400CE89F0A42FFFE5F009
:1009C8003EFEE433C98DF0A42EFEE5F039CD8AF061
:1009D800A42FFFE5F03EFEE43DFD33D0E0FB5007D9
:1009E8000BBB000F020AB2EC2CFCEF33FFEE33FE18
:0609F800ED33FD020A8A46
:1009FE0075F020800E75F010800575F0087D007E74
:100A0E00007F003392D530D503120E4DEC334010DB
:100A1E00EF33FFEE33FEED33FDEC33FCD5F0ED227C
:0E0A2E00E5F0247EA2D513CC92E7CDCEFF22B8
:100A3C00EDD2E7CD33EC3392D524814006E4FFFEB2
:100A4C00FDFC22FCE4CFCECDCC24E0501174FF8011
:100A5C00EDC3CC13CCCD13CDCE13CECF13CF0470AE
:070A6C00F030D5DE020E4D53
:101D54008F158E148D138C12E4FFFE7D807C3FABB7
:101D640015AA14A913A812120AD77009AF15AE1434
:101D7400AD13AC1222AF15AE14AD13AC12120ABDE2
:101D8400FBAF19AE18AD17AC16120ABDFFBF0108A0
:101D9400E4FFFE7D807C3F22EF64046022EB640458
:101DA400601DBB0127E4FFFEFDFCAB19AA18A917AF
:101DB400A816120AD760084006E4FFFEFDFC227450
:101DC400FFF519F518F517F516021E62E4F51AF574
:101DD4001BFFFEFDFCAB15AA14A913A812120AD707
:101DE400504BAF19AE18AD17AC16120A3C8E1A8FB1
:101DF4001BAC1AAD1BEC120A03C8ECC8C9EDC9CA66
:101E0400EECACBEFCBAF19AE18AD17AC1612080360
:101E1400E4FBFAF9F8120AD770A5AF15AE14AD13A6
:101E2400AC12120B508F158E148D138C12AF15AE8D
:101E340014AD13AC121218E8AB19AA18A917A816F6
:101E44001208F81224BA8F198E188D178C16E51BF8
:101E540030E00B120B508F198E188D178C16AF199A
:071E6400AE18AD17AC162209
:100A7300E9D2E7C933E833F892D5EDD2E7CD33ECC9
:070A830033FC5002B2D52242
:100A8A00EC30E7100FBF000C0EBE00080DBD0004CD
:100A9A000BEB6014A2D5EB13FCED92E7FD2274FF79
:100AAA00FCFDFEFF22E480F8A2D574FF13FC7D80D2
:030ABA00E480EFE6
:100ABD00ED33EC33601004700FED547F700574024C
:0A0ACD0092E0227404220422E422C5
:100AD70074F8CC6480CCC86480C8F58204604FC3C6
:100AE700EB9FF5F0EA9E42F0E99D42F0E89C45F065
:100AF700603C501DE5825FFFE582D313CB5BCBF4EF
:100B07002B5582FB50280ABA002409B90020088017
:100B17001DE5825BFBE582D313CF5FCFF4C3132FB1
:100B27005582FF50090EBE00050DBD00010CC3EB39
:100B37009FF5F0EA9E42F0E99D42F0E89C45F0609F
:090B470007CC4820E701B3EC22C1
:100B5000ED33EC33600A047003BD8004ECB2E7FCB3
:010B60002272
:1024820033DA929E35B16011377FE5FE39218489B6
:102492003AAEC3FF3C1D955B3D6358473E75FDF068
:1024A2003F3172183F800000C2D5020AB2020AA868
:1024B200BD80FA50F3020AAFED33EC330460F17BD6
:1024C2003B7AAA79B8783F1208F8ED33EC3392D50B
:1024D200247B5011A2D570DB500BED4480240450B4
:1024E20004A2D580CEEFFBEEFAEDF9ECF8120A3C2D
:1024F200EFF582F404FC120A08120807C082902445
:10250200827409120C10ED33CC33D0F092D525F041
:0A251200A2D57001C313CC13FD2203
:1018B4003E9248DA3ECCCCCD3F2AAAAB4000000091
:1018C4003F8000003F9837F03FB504F33FD744FC16
:1018D4003E3172173EB172173F0515913EDE5BD95A
:1018E400D20E8002C20EEDD2E7F8CD33EC33047091
:1018F4000BBD800592D5020AB2020AA840FBD3149C
:1019040060F2F5F07C3FEE7A00C39496C8948B4065
:10191400230AC89469C8941A401A0AC89468C894D7
:101924001F40110AC8945AC89425400805F07A004B
:10193400CDC2E7CDC0F08C1C8D1D8E1E8F1FEA23F7
:1019440023C0E024C4F582E43418F583120E921205
:101954000807ECC0E0EDC0E0EEC0E0EFC0E0120E1E
:1019640082A81CA91DAA1EAB1F120803D0E0FBD03D
:10197400E0FAD0E0F9D0E0B2E7F8120B648C1C8DE9
:101984001D8E1E8F1F9018B47403120C01A81CA97D
:101994001DAA1EAB1F1208F8D0E0600F24D0F582F8
:1019A400E43418F583120E921208078C1C8D1D8ED8
:1019B4001E8F1FD0E0C3947FFDE49400FC120A0341
:1019C4007B187A727931783F1208F8A81CA91DAAED
:1019D4001EAB1F120807300E0B7BD97A5B79DE78B9
:0519E4003E1208F8228C
:100B6100020AB2EC5D046005E859047003020AA8A8
:100B7100120A73580460F6EC4860F2EC7004FDFE52
:100B8100FF22C860DB2481C85009C3986002500667
:100B9100020AAF9850CAF582E9294B4A7005AB8227
:100BA100020A9E75F0007C1A7880C3EF9BEE9AEDE5
:100BB10099400DC3EF9BFFEE9AFEED99FDE842F0DF
:100BC100DC23ACF0D0E0FFD0E0FED0E0FDAB822032
:100BD100E7101BEB60BAEC2CFCEF33FFEE33FEEDBC
:100BE10033FD020A8AE803F830E705C0F075F0002A
:100BF100EF2FFFEE33FEED33FD40B830E7C280AAA0
:100C0100C0E0EFFBEEFAEDF9ECF81208F8D0E0F5F0
:100C1100F0EFFBEEFAEDF9ECF8120E82A3A3A3A319
:100C2100E8C0E0E9C0E0EAC0E0EBC0E0C0F01208D3
:100C3100F8120E92A3A3A3A3120807D0F0D0E0FBF1
:0D0C4100D0E0FAD0E0F9D0E0F8D5F0D422F0
:10264F0002251CE493A3F8E493A34003F68001F260
:10265F0008DFF48029E493A3F85407240CC8C3338C
:10266F00C4540F4420C8834004F456800146F6DF5B
:10267F00E4800B0102040810204080902083E47E48
:10268F00019360BCA3FF543F30E509541FFEE49350
:10269F00A360010ECF54C025E060A840B8E493A317
:1026AF00FAE493A3F8E493A3C8C582C8CAC583CA42
:1026BF00F0A3C8C582C8CAC583CADFE9DEE780BEFA
:012179000065
:100C4E00BB010CE58229F582E5833AF583E022505B
:100C5E0006E92582F8E622BBFE06E92582F8E222A5
:0D0C6E00E58229F582E5833AF583E49322BF
:100C7B00F8BB010DE58229F582E5833AF583E8F0AF
:100C8B00225006E92582C8F622BBFE05E92582C85B
:020C9B00F22243
:100C9D00EF8DF0A4A8F0CF8CF0A428CE8DF0A42E6B
:020CAD00FE2225
:100CAF00BC000BBE0029EF8DF084FFADF022E4CC29
:100CBF00F875F008EF2FFFEE33FEEC33FCEE9DECF2
:100CCF00984005FCEE9DFE0FD5F0E9E4CEFD22ED38
:100CDF00F8F5F0EE8420D21CFEADF075F008EF2F82
:100CEF00FFED33FD4007985006D5F0F222C398FD73
:050CFF000FD5F0EA2210
:100D0400C5F0F8A3E028F0C5F0F8E582158270027A
:060D14001583E038F02217
:100D1A00A3F8E0C5F025F0F0E5821582700215838C
:060D2A00E0C838F0E822E9
:100D3000E88FF0A4CC8BF0A42CFCE98EF0A42CFC62
:100D40008AF0EDA42CFCEA8EF0A4CDA8F08BF0A4E0
:100D50002DCC3825F0FDE98FF0A42CCD35F0FCEB3F
:100D60008EF0A4FEA9F0EB8FF0A4CFC5F02ECD3904
:0F0D7000FEE43CFCEAA42DCE35F0FDE43CFC2271
:100D7F0075F008758200EF2FFFEE33FECD33CDCC2B
:100D8F0033CCC58233C5829BED9AEC99E5829840AE
:100D9F000CF582EE9BFEED9AFDEC99FC0FD5F0D68B
:100DAF00E4CEFBE4CDFAE4CCF9A88222B800C1B9B5
:100DBF000059BA002DEC8BF084CFCECDFCE5F0CBF3
:100DCF00F97818EF2FFFEE33FEED33FDEC33FCEB2C
:100DDF0033FB10D703994004EB99FB0FD8E5E4F9E7
:100DEF00FA227818EF2FFFEE33FEED33FDEC33FCD4
:100DFF00C933C910D7059BE99A4007EC9BFCE99AC8
:100E0F00F90FD8E0E4C9FAE4CCFB2275F010EF2F0C
:100E1F00FFEE33FEED33FDCC33CCC833C810D7070C
:100E2F009BEC9AE899400AED9BFDEC9AFCE899F847
:0E0E3F000FD5F0DAE4CDFBE4CCFAE4C8F922DA
:102BE600C2D5E830E70FB2D5E4C39BFBE49AFAE41A
:102BF60099F9E498F8EC30E717B2D5122C1C120DAF
:102C0600BBE4C39BFBE49AFAE499F9E498F88003E1
:102C1600120DBB30D50DE4C39FFFE49EFEE49DFD7F
:042C2600E49CFC220C
:0E0E4D00C3E49FFFE49EFEE49DFDE49CFC22B6
:100E5B00E8600FECC313FCED13FDEE13FEEF13FF75
:030E6B00D8F12299
:100E6E00E86010ECA2E713FCED13FDEE13FEEF139A
:040E7E00FFD8F02287
:100E8200E493FC740193FD740293FE740393FF22B6
:100E9200E493F8740193F9740293FA740393FB22B6
:0C0EA200ECF0A3EDF0A3EEF0A3EFF022C3
:0C0EAE00A42582F582E5F03583F583224F
:060EBA008A838982E473C3
:100EC000E3F5F009E208B5F06D606B80F3E3F5F04F
:100ED00009E608B5F060605E80F387F009E608B5C2
:100EE000F054605280F487F009E208B5F04860469B
:100EF00080F488828C8387F009E0A3B5F0386036EF
:100F000080F488828C8387F009E493A3B5F027608E
:100F10002580F388828C83E3F5F009E0A3B5F01611
:100F2000601480F388828C83E3F5F009E493A3B521
:100F3000F004600280F2020FEB808580E7808E80F3
:100F4000D2803C8015806C807E809B80B5808B80B9
:100F5000A1804F8070803A020FF789828A83ECFA71
:100F6000E493F5F0A3C8C582C8CCC583CCE493A3B1
:100F7000C8C582C8CCC583CCB5F070606E80E189ED
:100F8000828A83E493F5F0A3E208B5F05E605C80AA
:100F9000F289828A83E0F5F0A3E608B5F04D604B54
:100FA00080F389828A83E0F5F0A3E208B5F03C6023
:100FB0003A80F389828A83E493F5F0A3E608B5F0DA
:100FC0002A602880F2805389828A83ECFAE493F5C0
:100FD000F0A3C8C582C8CCC583CCE0A3C8C582C86D
:100FE000CCC583CCB5F004600280E27FFFB5F0028F
:100FF0000F2240027F012289828A83ECFAE0F5F019
:10100000A3C8C582C8CCC583CCE0A3C8C582C8CC60
:10101000C583CCB5F0D560D380E389828A83ECFAAE
:10102000E0F5F0A3C8C582C8CCC583CCE493A3C8BF
:10103000C582C8CCC583CCB5F0B160AF80E288F082
:10104000ED2402B4040050A3F582EB2402B40400A2
:0B10500050992323458223900F397331
:00000001FF
